:10000000DAC00000F3C00000F1C00000EFC0000043
:10001000EDC00000EBC00000E9C00000E7C0000038
:10002000E5C00000E3C000005BC40000C5C40000E0
:10003000DDC00000DBC00000D9C00000D7C0000058
:10004000D5C00000D3C00000D1C00000CFC0000068
:10005000CDC00000CBC00000C9C00000C7C0000078
:10006000C5C00000C3C00000C1C00000BFC0000088
:10007000BDC00000BBC00000B9C00000B7C0000098
:10008000B5C00000B3C00000B1C00000AFC00000A8
:10009000ADC00000ABC00000A9C00000A7C00000B8
:1000A000A5C00000A3C00000A1C00000466F726D93
:1000B0006174206E6F74207265636F676E697A6514
:1000C000640D0A00466F726D6174206E6F74207249
:1000D00065636F676E697A65640D0A000D0A003EFC
:1000E000200000010000190112000200002B012273
:1000F000002200004D013F002100003D01090003E6
:1001000000008C010401030904900110020309049A
:10011000A20112000001C10600120100020000004D
:1001200020C0167C04000101020001090222000126
:100130000100C0320904000001030101000921117E
:10014000010001223F0007058303080001050109A2
:1001500006A10175019508050719E029E715002595
:10016000018102950175088103950575010508193E
:1001700001290591029501750391039506750815EE
:100180000025680507190029688100C004030904D7
:1001900010034D00660067004E0061006D006500B1
:1001A000000012034B006500790062006F006100DF
:1001B00072006400000011241FBECFEFDAE0DEBF42
:1001C000CDBF11E0A0E0B1E0E0E3FDE002C00590AA
:1001D0000D92A831B107D9F711E0A8E1B1E001C053
:1001E0001D92A332B107E1F7D1D2A0C509CF0F9379
:1001F0001F93CF93DF93EC01062F10E011C07AD547
:10020000282F30E02D30310569F02A30310551F0CA
:10021000205230402F35310590F7899363D51F5F09
:10022000101768F3812FDF91CF911F910F910895DF
:10023000CF93DF93EC01FE0121968491882311F086
:1002400051D5F9CFDF91CF9108951F93CF93DF93CD
:10025000EC01653009F093C288818E3539F08E3714
:1002600011F410E004C084EC90E08BC212E08981AC
:10027000803309F050C08A81883709F04CC08B81E7
:10028000803309F048C08C81843319F484E0612FF5
:100290001AD38C81853319F485E0612F14D38C81B6
:1002A000863319F486E0612F0ED38C81873319F4DD
:1002B00087E0612F08D38C81883319F488E0612F9F
:1002C00002D38C81893319F489E0612FFCD28C81AF
:1002D000813419F48AE0612FF6D28C81823419F4CA
:1002E0008BE0612FF0D28C81833419F48CE0612F84
:1002F000EAD28C81843419F48DE0612FE4D28C81B0
:10030000853419F48EE0612FDED28C81863419F4A5
:100310008FE0612FD8D28981803309F068C08A814B
:10032000883709F064C08B81813309F060C08C810B
:10033000803319F480E1612FC6D28C81813319F4A6
:1003400081E1612FC0D28C81823319F482E1612F67
:10035000BAD28C81833319F483E1612FB4D28C81BA
:10036000843319F484E1612FAED28C81853319F482
:1003700085E1612FA8D28C81863319F486E1612F43
:10038000A2D28C81873319F487E1612F9CD28C81B2
:10039000883319F488E1612F96D28C81893319F45E
:1003A00089E1612F90D28C81813419F48AE1612F27
:1003B0008AD28C81823419F48BE1612F84D28C81B2
:1003C000833419F48CE1612F7ED28C81843419F44A
:1003D0008DE1612F78D28C81853419F48EE1612F03
:1003E00072D28C81863419F48FE1612F6CD28981AD
:1003F000803309F068C08A81883709F064C08B8136
:10040000823309F060C08C81803319F480E2612F5F
:100410005AD28C81813319F481E2612F54D28C81BC
:10042000823319F482E2612F4ED28C81833319F426
:1004300083E2612F48D28C81843319F484E2612FE6
:1004400042D28C81853319F485E2612F3CD28C81B4
:10045000863319F486E2612F36D28C81873319F402
:1004600087E2612F30D28C81883319F488E2612FC2
:100470002AD28C81893319F489E2612F24D28C81AC
:10048000813419F48AE2612F1ED28C81823419F4EE
:100490008BE2612F18D28C81833419F48CE2612FA6
:1004A00012D28C81843419F48DE2612F0CD28C81AC
:1004B000853419F48EE2612F06D28C81863419F4CA
:1004C0008FE2612F00D28981803309F05EC08A817A
:1004D000883709F05AC08B81833309F056C08C816C
:1004E000803311F4612FEFD18C81813311F4612FAE
:1004F000EAD18C81823311F4612FE5D18C81833371
:1005000011F4612FE0D18C81843311F4612FDBD1A0
:100510008C81853311F4612FD6D18C81863311F40F
:10052000612FD1D18C81873311F4612FCCD18C8193
:10053000883311F4612FC7D18C81893311F4612F75
:10054000C2D18C81813419F48AE3612FBCD18C81B2
:10055000823419F48BE3612FB6D18C81833419F482
:100560008CE3612FB0D18C81843419F48DE3612F39
:10057000AAD18C81853419F48EE3612FA4D18C81AA
:10058000863419F48FE3612F9ED18981803309F07D
:1005900068C08A81883709F064C08B81843309F090
:1005A00060C08C81803319F480E4612F8CD18C8100
:1005B000813319F481E4612F86D18C81823319F45F
:1005C00082E4612F80D18C81833319F483E4612F1D
:1005D0007AD18C81843319F484E4612F74D18C81B5
:1005E000853319F485E4612F6ED18C81863319F43B
:1005F00086E4612F68D18C81873319F487E4612FF9
:1006000062D18C81883319F488E4612F5CD18C81AC
:10061000893319F489E4612F56D18C81813419F41E
:100620008AE4612F50D18C81823419F48BE4612FDC
:100630004AD18C81833419F48CE4612F44D18C81AC
:10064000843419F48DE4612F3ED18C81853419F402
:100650008EE4612F38D18C81863419F48FE4612FB8
:1006600032D18981803309F068C08A81883709F0E6
:1006700064C08B81853309F060C08C81803319F4AC
:1006800080E5612F20D18C81813319F481E5612FC0
:100690001AD18C81823319F482E5612F14D18C81B7
:1006A000833319F483E5612F0ED18C81843319F4DF
:1006B00084E5612F08D18C81853319F485E5612F9C
:1006C00002D18C81863319F486E5612FFCD08C81B0
:1006D000873319F487E5612FF6D08C81883319F4BC
:1006E00088E5612FF0D08C81893319F489E5612F79
:1006F000EAD08C81813419F48AE5612FE4D08C81B1
:10070000823419F48BE5612FDED08C81833419F4A7
:100710008CE5612FD8D08C81843419F48DE5612F5C
:10072000D2D08C81853419F48EE5612FCCD08C81A8
:10073000863419F48FE5612FC6D08981803311F595
:100740008A818837F9F48B818633E1F48C81803398
:1007500019F480E6612FB7D08C81813319F481E6DA
:10076000612FB1D08C81823319F482E6612FABD036
:100770008C81833339F483E6612FA5D003C08CEAE2
:1007800090E056DDDF91CF911F910895EF92FF9297
:100790001F93DF93CF93CDB7DEB7A0970FB6F89432
:1007A000DEBF0FBECDBF80E8809361001092610074
:1007B00028D03ED08823E9F380E197E220E931E0B8
:1007C000F9013197F1F70197D9F780D289EF8AB90A
:1007D0001BB87E010894E11CF11CA0D280E091E0DE
:1007E00090D28FED90E024DDC70160E200DD182F8C
:1007F0008F3F99F38CED90E01BDDC701612F25DD64
:10080000F0CF81E08093D70080EA8093D80082E126
:1008100089BD09B400FEFDCF80E98093D800109215
:10082000E000109220018CE08093E200789408951B
:1008300080912001089580912001882309F441C00E
:100840002FB7F89483E08093E9009091E4009E5CD8
:1008500033E08091E80085FD0EC02FBF809120011C
:10086000882379F18091E400891759F12FB7F89422
:100870003093E900EECF809118018093F10010923F
:10088000F100809119018093F10080911A01809309
:10089000F10080911B018093F10080911C018093F5
:1008A000F10080911D018093F10080911E018093E1
:1008B000F1008AE38093E800109221012FBF80E0CD
:1008C00008958FEF08956093180180931901B3DFA5
:1008D000882329F41092180110921901ACCF0895C1
:1008E0001F920F920FB60F9211242F938F939F9305
:1008F0008091E1001092E100982F83FF0FC01092C9
:10090000E90081E08093EB001092EC0082E280939A
:10091000ED0088E08093F0001092200192FF44C027
:1009200080912001882309F43FC0209116012223E1
:10093000D9F1809122018F5F8093220190E0837032
:100940009070892B89F583E08093E9008091E8001D
:1009500085FF2AC0809121018F5F8093210182173A
:1009600019F510922101809118018093F1001092E5
:10097000F100809119018093F10080911A01809318
:10098000F10080911B018093F10080911C01809304
:10099000F10080911D018093F10080911E018093F0
:1009A000F1008AE38093E8009F918F912F910F903F
:1009B0000FBE0F901F9018951F920F920FB60F92B7
:1009C00011240F931F932F933F934F935F936F9334
:1009D0007F938F939F93AF93BF93EF93FF93109267
:1009E000E9008091E80083FF5BC14091F100309104
:1009F000F1008091F100682F70E02091F100922FBA
:100A000080E0682B792B8091F100A82FB0E0209135
:100A1000F100922F80E0A82BB92B1091F1000091EA
:100A2000F10082EF8093E800363009F05AC029EED9
:100A300030E0A90145505040F901379785919491D4
:100A40008617970701F5FA01859194918A179B07FC
:100A5000D1F49A012E5F3F4FF901659174912E5F99
:100A60003F4FF9014491212F30E0902F80E0282B57
:100A7000392B2F3F310519F010F02FEF30E02417FC
:100A800058F4422F09C0295F3F4F495F5F4FF1E0A3
:100A90002A313F0789F604C15EEF8091E800282FD4
:100AA00030E0C90185709070892BB9F322FDFBC03D
:100AB000342F413208F030E2232FCB0106C0FC0175
:100AC0000196E491E093F10021502223C1F7630FD6
:100AD000711D431B5093E8004423F9F63032E9F2CC
:100AE000E2C0353061F48EEF8093E8008091E80039
:100AF00080FFFCCF862F80688093E300D4C039301C
:100B000031F5442309F071C0609320018EEF80938A
:100B1000E80083E191E021E02093E900FC010196E7
:100B2000E491E093EB00EE2369F0AC014F5F5F4F7F
:100B3000FC0184918093EC00CA010196FA01349182
:100B40003093ED002F5F253039F78EE149C0383002
:100B500051F4403809F049C08091E80080FFFCCF93
:100B6000809120017BC03323D1F48091E80080FF85
:100B7000FCCF423811F080E00DC0A093E9008091D5
:100B8000EB0090E025E0969587952A95E1F7817036
:100B90001092E9008093F1001092F1007DC0313095
:100BA00011F0333011F5423001F561157105E9F4AA
:100BB0002A2F2F77822F81508430B8F48EEF8093C4
:100BC000E8002093E900333009F46AC089E180939A
:100BD000EB0081E090E002C0880F991F2A95E2F7B0
:100BE0008093EA001092EA005EC0AB2B09F058C077
:100BF000413AB9F5313009F58091E80080FFFCCF2A
:100C0000809118018093F1001092F10080911901F8
:100C10008093F10080911A018093F10080911B0173
:100C20008093F10080911C018093F10080911D015F
:100C30008093F10080911E0111C0323039F480910F
:100C4000E80080FFFCCF8091160108C0333041F5E9
:100C50008091E80080FFFCCF809117018093F10024
:100C60001BC04132E9F4393061F48091E80082FF21
:100C7000FCCF8091F10080931F018BEF8093E800FF
:100C80000BC03A3029F4709316011092210104C070
:100C90003B3031F4609317018EEF8093E80003C07E
:100CA00081E28093EB00FF91EF91BF91AF919F9113
:100CB0008F917F916F915F914F913F912F911F91F4
:100CC0000F910F900FBE0F901F9018951092CD00AE
:100CD00087E68093CC0088E18093C90086E080930A
:100CE000CA000895982F8091C80085FFFCCF90938B
:100CF000CE0008958091C80087FFFCCF8091CE0080
:100D00000895FC0107C08091C80085FFFCCF909337
:100D1000CE00319690819923B1F7089502C0809159
:100D2000CE008091C80087FDFACF0895F894FFCFD8
:100D30005541525420746F205553422050726F67B2
:080D400072616D0A0D007D01D6
:00000001FF
